:100A2E0020202020202020202020202020202020B8
:100A3E00005363616E66205057443A00505744206D
:100A4E004D69737461636B210046616E2054656D50
:100A5E00702053756E2043616C00424D492020502A
:100A6E0069636B28312D35293A00424D4900483AC9
:100A7E0000573A00434D004B4700424D493A005251
:100A8E006573756C743A004E6F726D616C005468CC
:100A9E00696E21004368756262792121004E554DC1
:100AAE0031204E554D3220526573756C740052478D
:100ABE003A006E6F77206973206E69676874210043
:100ACE006E6F77206973206461792100543A004675
:0A0ADE00616E2053706565643A00F4
:1010EF001212C08F27E527B4011D7BFF7A0A792ED4
:1010FF007D017F0112113F7BFF7A0A792E7D017FDF
:08110F000212113FE4F5262253
:101117001212C08F27E527B4011D7BFF7A0A792EAB
:101127007D017F0112113F7BFF7A0A792E7D017FB6
:081137000212113F7526062289
:100B96007BFF7A0A793F7D017F0112113F12000324
:100BA6008F21E5217003020C34E520C39404502CF8
:100BB600E521C394014025E521D3940A501EAE14C5
:100BC600AF157C007D0A12033AE52175F00A84EF21
:100BD60025F0F515EC3EF51405208052E521B40B01
:100BE60009E4F514F515F5208044E521640C703E02
:100BF600E51564D27004E5146404701EF514F51549
:100C0600F5207526067BFF7A0A792E7D017F011273
:100C1600113F7BFF7A0A792E800DE4F514F515F560
:100C2600207BFF7A0A794A7D017F0212113F753FC8
:0C0C360004AB15AA147D0B7F0102119E77
:100DCF007BFF7A0A79577D017F0112113F7BFF7AF2
:100DDF000A79687D017F0212113F1210EF12000392
:100DEF008F21E5216043C394014019E521D3940578
:100DFF005012852112E512FB7A00753F017D107F9D
:100E0F000202119EE521B40C20E512601CF5267B31
:100E1F00FF7A0A792E7D017F0112113F7BFF7A0A3B
:0A0E2F00792E7D017F0212113F228F
:10071200E51360030208367BFF7A0A79787D017F50
:100722000112113F7BFF7A0A797C7D0A7F01121147
:100732003F7BFF7A0A797F7D0A7F0212113F7BFF9E
:100742007A0A79827D0F7F0112113F7BFF7A0A7943
:10075200857D0F7F0212113F1200038F21121117A4
:10076200E521700302080FE518C39403502CE5211C
:10077200C394014025E521D3940A501EAE1AAF1B43
:100782007C007D0A12033AE52175F00A84EF25F018
:10079200F51BEC3EF51A05188073E521B40B0280B7
:1007A20020E521640C7066E52E452D701D851A2DFD
:1007B200851B2E753F03AB2EAA2D7D0C7F011211D6
:1007C2009EE4F51AF51BF5188043E52A4529703D8C
:1007D200851A29851B2A7513017BFF7A0A792E7DDA
:1007E200017F0112113F7BFF7A0A792E7D017F0280
:1007F20012113F7BFF7A0A79887D017F0112113F36
:100802007BFF7A0A798D7D017F0212113FE52E4529
:100812002D700D753F03AB1BAA1A7D0C7F01801151
:10082200E52A4529700E753F03AB1BAA1A7D0C7F82
:0B0832000212119EE51370030209641E
:10083D00AC2DAD2EE4120253E4FBFA79C8784212C6
:10084D0001278F368E358D348C33A804A905AA0661
:10085D00AB0712001EC004C005C006C007AC29AD11
:10086D002AE4120253D003D002D001D00012012786
:10087D008F3A8E398D388C37121117AF3AAE39AD9C
:10088D0038AC3712028CAB07AA06753F027D057F87
:10089D000112119E7B2E7D077F011212B6E4FFFE21
:1008AD007DC87C42AB3AAA39A938A83712001E126E
:1008BD00028C7C007D641203A1AA04AB05753F0276
:1008CD007D087F0112119EE4FFFE7D947C41AB3AC1
:1008DD00AA39A938A8371201C4601F401D7F337E85
:1008ED00337DC77C41AB3AAA39A938A8371201C468
:1008FD0050087BFF7A0A79958020E4FFFE7D947C79
:10090D0041AB3AAA39A938A8371201C47BFF50066A
:10091D007A0A799C80047A0A79A27D087F021211E5
:10092D003F1200038F21E521640B702B7BFF7A0AA8
:10093D00792E7D017F0112113F7BFF7A0A792E7D81
:10094D00017F0212113FE4F52DF52EF529F52AF55B
:07095D001AF51BF518F51354
:010964002270
:1004B3001211177BFF7A0A79AB7D017F0112113F7D
:1004C3001200038F21E52170030206D7C3E532949E
:1004D30003E53194005039E521C394014032E5210D
:1004E300D3940A502BAE0EAF0F7C007D0A12033A51
:1004F300E52175F00A84EF25F0F50FEC3EF50E7556
:100503002B00752C010532E532700205310206D746
:10051300E521640B7050F50EF50FF531F532E5303A
:10052300452F70030206D7E523452270030206D741
:10053300E525452470030206D77BFF7A0A792E7DD1
:10054300017F0212113FE4F522F523F524F525F589
:100553000EF50FF531F532F52BF52CF510F511F5F8
:100563002FF5300206D7E521640C6003020673E51C
:10057300234522701B850E22850F23753F03AB2372
:10058300AA227D017F0212119EE4F52BF52C803CFB
:10059300E52345226016E530452F701085102F8521
:1005A3001130F50EF50FF531F5328020E530452F8A
:1005B300601AE52545247014850E24850F25753FA3
:1005C30003AB25AA247D077F0212119EE530452F38
:1005D30070030206D7E523452270030206D7E525FB
:1005E300452470030206D77B3D7D0A7F021212B6B3
:1005F300E530640D452F7014E5232525FBE52235F1
:1006030024FA753F047D0B7F0212119EE530640EC0
:10061300452F7015C3E5239525FBE5229524FA752F
:1006230037037D0B7F02120FACE530640F452F704B
:1006330019AC24AD25AE22AF2312033AAA06AB07A9
:10064300753F067D0B7F0212119EE5306410452F26
:1006530060030206D7AC24AD25AE22AF2312034CB0
:10066300AA06AB07753F037D0B7F0212119E8064C0
:10067300E5234522605EE521C3940D4057E521D370
:1006830094105050E521B40D0F75100075110D7BBA
:100693002B7D057F021212B6E521B40E0F751000F3
:1006A30075110E7B2D7D057F021212B6E521B40F65
:1006B3000F75100075110F7B2A7D057F021212B68C
:1006C300E521B4100F7510007511107B2F7D057F88
:1006D300021212B6E52C452B6014E5234522700E59
:1006E300753F03AB0FAA0E7D017F0212119EE53009
:1006F300452F601AE52545247014E52C452B600E23
:0F070300753F03AB0FAA0E7D077F0212119E22D6
:100C42007BFF7A0A79BC7D017F0112113F7FA47E6E
:100C520000120D638E168F17753F03AB17AA167D10
:100C6200047F0112119EE52664037036D3E51794C2
:100C720008E5169400502B1211177FA47E00120D66
:100C8200638E168F17753F03AB17AA167D047F017B
:100C920012119E7BFF7A0A79C07D017F0212113FF9
:100CA20080C47BFF7A0A792E8033E526640370368E
:100CB200D3E5179408E5169400402B1211177FA470
:100CC2007E00120D638E168F17753F03AB17AA169F
:100CD2007D047F0112119E7BFF7A0A79CE7D017F0E
:070CE2000212113F80C42241
:100AE8007BFF7A0A79DA7D017F0112113FE52664DE
:100AF800026003020B9512111712000E1210C38F19
:100B08001F8E1E8D1D8C1CE4FFFEFDFCAB1FAA1E54
:100B1800A91DA81C1201C4501E7B2D7D037F011244
:100B280012B6AF1FAE1EAD1DAC1C12023D8F1F8E3C
:100B38001E8D1D8C1C80097B2B7D037F011212B634
:100B4800AF1FAE1EAD1DAC1C12028CAB07AA0675FA
:100B58003F037D047F0112119E7B2E7D077F0112CA
:100B680012B6E4FFFE7DC87C42AB1FAA1EA91DA8D1
:100B78001C12001E12028CE47B64FAF9F8120413AA
:0E0B8800753F027D087F0112119E020AF522C0
:100E39001212241211171200038F21E521640A608E
:100E49000EE521C394014032E521D39403502BE5EB
:100E590021B40A05E4F528F519E521B40106752838
:100E690001751932E521B4020675280275194BE599
:100E790021B403067528037519647BFF7A0A79DDA5
:100E89007D017F0112113FE528FB7A00753F017D45
:060E99000B7F0102119E17
:100CE90012127D12120DE5267005120B9680F7E59A
:100CF90026B40105120E3980EDE526B40205120A63
:100D0900E880E3E526B40305120C4280D9E526B450
:100D190004051204B380CFE526B405051207128035
:100D2900C5E526B406C0E4F528F519C2ABF522F5E8
:100D390023F524F525F50EF50FF531F532F52BF5EB
:100D49002CF52FF530F529F52AF51AF51BF52DF5B2
:0A0D59002EF518F513120DCF808C53
:03000B00020F05DC
:100F0500C0E0C0F0C083C082C0D075D000C000C0B2
:0D0F150001C002C003C004C005C006C00733
:100F220005080509758A18758CFCE508C3941440F8
:0E0F320003120965E509C3943C400312101F29
:100F4000D007D006D005D004D003D002D001D00005
:0B0F5000D0D0D082D083D0F0D0E032AF
:03001B00020F5B76
:100F5B00C0E0C0F0C0D075D000C000C004C005C058
:030F6B0006C007B6
:100F6E00050BE50B7002050AAE0AFF7C007D6412CC
:100F7E00034C8C0A8D0B758B9C758DFFC3E50B9501
:0D0F8E0019E50A94005004D2908002C29030
:100F9B00D007D006D005D004D000D0D0D0F0D0E010
:010FAB003213
:06129100C2A58F80D2A768
:081297007F027EEFDEFEDFFCAA
:01129F00222C
:0A12AC00C2A6121291C2A702129707
:10116200CFCDCFCECCCE12034C7C007D0A12034CE5
:04117200ED2430FF39
:0A117600D2A6121291C2A70212972E
:10123B00AE07BE0104ED148006BE0209ED243F4447
:06124B0080FF1212AC222C
:10127D007F381212AC7F0C1212AC7F061212AC7FAB
:04128D00010212AC9C
:0A12B600AC0312123BAF04021176E4
:06113F008B3B8A3C893D58
:1011450012123BE4FDAB3BAA3CA93D8D82758300A1
:0C11550012030DFF60061211760D80E9F8
:01116100226B
:0C1090007F0AEA24FFFDE434FFFC7E0030
:08109C008E408F418C428D4310
:1010A4007F017E00E4FBEBC39543E5426480F87462
:0E10B4008098500AAC40AD4112033A0B80E820
:0110C200220B
:04119E008A3D8B3EBD
:1011A20012123BAA3FEAD39400400D121090AC3DBC
:0811B200AD3E1211621A80ED3E
:0111BA002212
:100FAC0012123BC3EA64809480400B7F2B121176A3
:100FBC008A388B39800E7F2D121176C3E49BF5395C
:100FCC00E49AF538AA37EAD39400400D121090AC8D
:090FDC0038AD391211621A80EDE2
:010FE50022E9
:040FE6008A468B4765
:100FEA0012123BAA48EAD3940040297F10121092A9
:100FFA00AC46AD47CFCDCFCECCCE12034CEF540F7B
:10100A00FEC3940AEE5004243080022437FF1211E2
:04101A00761A80D1F1
:01101E0022AF
:041058008A4B8B4CE8
:10105C0012123BAA4DEAD394004028EA24FFFDE487
:10106C0034FFFC7F027E0012109CAC4BAD4CCFCDFC
:10107C00CFCECCCE12034CEF54012430FF1211769C
:03108C001A80D2F5
:01108F00223E
:05000300E4AF50F550D0
:0100080022D5
:100E9F00E4FF7590FFC2932097010F2096027F0504
:100EAF002095027F092094027F0D7590FFC292203A
:100EBF0097027F022096027F062095027F0A2094D8
:100ECF00027F0E7590FFC2912097027F032096023A
:100EDF007F072095027F0B2094027F0F7590FFC232
:100EEF00902097027F042096027F082095027F0CA6
:050EFF002094027F10A9
:010F040022CA
:10096500854E4F120E9F8F4EE54FB40107E54E7031
:1009750003755001E54FB40207E54E70037550024B
:10098500E54FB40307E54E7003755003E54FB40416
:1009950007E54E7003755004E54FB40507E54E7045
:1009A50003755005E54FB40607E54E70037550060F
:1009B500E54FB40707E54E7003755007E54FB408DA
:1009C50007E54E7003755008E54FB40907E54E700D
:1009D50003755009E54FB40A07E54E700375500AD3
:1009E500E54FB40B07E54E700375500BE54FB40C9E
:1009F50007E54E700375500CE54FB40D07E54E70D5
:100A05000375500DE54FB40E07E54E700375500E96
:100A1500E54FB40F07E54E700375500FE54FB41061
:080A250007E54E700375501047
:010A2D0022A6
:10120D005389F0438901758A18758CFCC28DD28C77
:07121D00D2A9D2AFC2B92231
:0512C000E4AF53F553FB
:0112C5002206
:10125100E4FF20B1010F20B0027F0220B2027F0320
:0512610020B3027F0430
:011266002265
:10101F008551521212518F51E552B40107E55170AB
:10102F0003755301E552B40207E55170037553027E
:10103F00E552B40307E5517003755303E552B40449
:08104F0007E55170037553041D
:011057002276
:1012240053890F438910758B9C758DFFC28FD28EA5
:07123400D2ABD2AFC2B92218
:0D000E001211807FCC1211F47F440211F416
:1010C3001211807FCC1211F47FBE1211F41211BBE6
:1010D3008F331211BBEFFEE533FFFDAC06EC1202BA
:0B10E30053E4FBFA79807841120127EA
:0110EE0022DF
:10118000C2AFD2B7C2B77FF7DFFED2B77F20DFFE94
:0D119000A2B7E433FE7FF7DFFED2AFAF065B
:01119D00222F
:10126700C2AFC2B77E04DEFEEF24FF92B77E18DE60
:05127700FED2B7D2AF6A
:01127C00224F
:1011D800C2AFC2B77F02DFFED2B77F02DFFEA2B77F
:0B11E800E433FE7F18DFFED2AFAF063D
:0111F30022D9
:0211F400AD0745
:1011F600E4FC7401A804088002C333D8FC5DFF1226
:0612060012670CBC08ECAD
:01120C0022BF
:1011BB00E4FDFC1211D8EF600D7401A80408800245
:0C11CB00C333D8FC42050CBC08E9AF059A
:0111D70022F5
:040D63008E338F3408
:100D6700E4FBFAD2B5C2B6C2B5FD74807E00A80511
:100D7700088006CEA2E713CE13D8F8FFE5335EFE50
:100D8700E5345F4E24FF92B4D2B6C2B60DBD08DA81
:100D9700D2B6C2B6E4FDD2B6C2B630B716E47E808C
:100DA700A805088005CEC313CE13D8F9FFEE42027B
:100DB700EF42030DBD10DFD2B5EAC4F854F0C8689E
:070DC700FEEBC4540F48FFCE
:010DCE002202
:10001E00EC4D6011E8497017ED33EC3304600DE4DC
:10002E00FCFFFEFD22E933E8330470F80202F812F9
:10003E0002C358046009E4CC2481500628500902FA
:10004E0003022840030202FFC0E0EB4A7044B9806D
:10005E0006D0E0FB0202EEEF4E701CBD8008EBFFF7
:10006E00EAFEE9FD80EBE98DF0A4FEE5F002010762
:10007E00E9CDF9EAFEEBFFEF89F0A4FCE5F0CE89BD
:10008E00F0A42EFFE435F0CD89F0A42DFEE435F07A
:10009E008067EF4E7005BD80D780C3EF8BF0A4ACA8
:1000AE00F0EE8BF0A42CFCE435F0F8EF8AF0A42CE3
:1000BE00E5F038FCE433CB8DF0A42CFCE5F03BF8F6
:1000CE00EE8AF0A42CFCE5F038F8E433CF89F0A4E6
:1000DE002CFCE5F038CF3400CE89F0A42FFFE5F0EC
:1000EE003EFEE433C98DF0A42EFEE5F039CD8AF044
:1000FE00A42FFFE5F03EFEE43DFD33D0E0FB5007BC
:10010E000BBB000F020302EC2CFCEF33FFEE33FEB1
:06011E00ED33FD0202DAE0
:10012400020302EC5D046005E8590470030202F85E
:100134001202C3580460F6EC4860F2EC7004FDFE51
:10014400FF22C860DB2481C85009C39860025006AE
:100154000202FF9850CAF582E9294B4A7005AB8226
:100164000202EE75F0007C1A7880C3EF9BEE9AEDE4
:1001740099400DC3EF9BFFEE9AFEED99FDE842F026
:10018400DC23ACF0D0E0FFD0E0FED0E0FDAB822079
:10019400E7101BEB60BAEC2CFCEF33FFEE33FEED03
:1001A40033FD0202DAE803F830E705C0F075F00029
:1001B400EF2FFFEE33FEED33FD40B830E7C280AAE7
:1001C40074F8CC6480CCC86480C8F58204604FC3E2
:1001D400EB9FF5F0EA9E42F0E99D42F0E89C45F081
:1001E400603C501DE5825FFFE582D313CB5BCBF40B
:1001F4002B5582FB50280ABA002409B90020088034
:100204001DE5825BFBE582D313CF5FCFF4C3132FCD
:100214005582FF50090EBE00050DBD00010CC3EB55
:100224009FF5F0EA9E42F0E99D42F0E89C45F060BB
:0902340007CC4820E701B3EC22DD
:10023D00ED33EC33600A047003BD8004ECB2E7FCCF
:01024D00228E
:10024E0075F020800E75F010800575F0087D007E2B
:10025E00007F003392D530D5031204A5EC33401045
:10026E00EF33FFEE33FEED33FDEC33FCD5F0ED2234
:0E027E00E5F0247EA2D513CC92E7CDCEFF2270
:10028C00EDD2E7CD33EC3392D524814006E4FFFE6A
:10029C00FDFC22FCE4CFCECDCC24E0501174FF80C9
:1002AC00EDC3CC13CCCD13CDCE13CECF13CF047066
:0702BC00F030D5DE0204A5BD
:1002C300E9D2E7C933E833F892D5EDD2E7CD33EC81
:0702D30033FC5002B2D522FA
:1002DA00EC30E7100FBF000C0EBE00080DBD000485
:1002EA000BEB6014A2D5EB13FCED92E7FD2274FF31
:1002FA00FCFDFEFF22E480F8A2D574FF13FC7D808A
:03030A00E480EF9D
:030000000212A049
:0C12A000787FE4F6D8FD758153020CE95C
:10030D00BB010CE58229F582E5833AF583E02250A5
:10031D0006E92582F8E622BBFE06E92582F8E222EF
:0D032D00E58229F582E5833AF583E4932209
:10033A00EF8DF0A4A8F0CF8CF0A428CE8DF0A42ED7
:02034A00FE2291
:10034C00BC000BBE0029EF8DF084FFADF022E4CC95
:10035C00F875F008EF2FFFEE33FEEC33FCEE9DEC5E
:10036C00984005FCEE9DFE0FD5F0E9E4CEFD22EDA4
:10037C00F8F5F0EE8420D21CFEADF075F008EF2FEE
:10038C00FFED33FD4007985006D5F0F222C398FDDF
:05039C000FD5F0EA227C
:1003A100C2D5EC30E709B2D5E4C39DFDE49CFCEE77
:1003B10030E715B2D5E4C39FFFE49EFE12034CC3A0
:1003C100E49DFDE49CFC800312034C30D507C3E49B
:0603D1009FFFE49EFE22E6
:1003D70075F008758200EF2FFFEE33FECD33CDCCDD
:1003E70033CCC58233C5829BED9AEC99E582984060
:1003F7000CF582EE9BFEED9AFDEC99FC0FD5F0D63D
:10040700E4CEFBE4CDFAE4CCF9A88222B800C1B966
:100417000059BA002DEC8BF084CFCECDFCE5F0CBA4
:10042700F97818EF2FFFEE33FEED33FDEC33FCEBDD
:1004370033FB10D703994004EB99FB0FD8E5E4F998
:10044700FA227818EF2FFFEE33FEED33FDEC33FC85
:10045700C933C910D7059BE99A4007EC9BFCE99A79
:10046700F90FD8E0E4C9FAE4CCFB2275F010EF2FBE
:10047700FFEE33FEED33FDCC33CCC833C810D707BE
:100487009BEC9AE899400AED9BFDEC9AFCE899F8F9
:0E0497000FD5F0DAE4CDFBE4CCFAE4C8F9228C
:0E04A500C3E49FFFE49EFEE49DFDE49CFC2268
:00000001FF
